:100000000C9453000C947B000C947B000C947B00AC
:100010000C947B000C947B000C947B000C947B0074
:100020000C947B000C947B000C947B000C947B0064
:100030000C947B000C947B000C947B000C947B0054
:100040000C9401020C947B000C94CF010C94A90138
:100050000C947B000C947B000C947B000C947B0034
:100060000C947B000C947B0000000000250028000D
:100070002B0000000000240027002A0004040404D0
:100080000404040402020202020203030303030342
:10009000010204081020408001020408102001021F
:1000A000040810204B0211241FBECFEFD8E0DEBFA2
:1000B000CDBF11E0A0E0B1E0ECE2F7E002C00590B6
:1000C0000D92A231B107D9F721E0A2E1B1E001C060
:1000D0001D92A23DB207E1F710E0C3E5D0E004C0F5
:1000E0002197FE010E948E03C235D107C9F70E94F5
:1000F000AC020C9494030C94000090E0FC01E057D7
:10010000FF4F249184589F4FFC018491882399F0DC
:1001100090E0880F991FFC01EE58FF4FA591B49114
:10012000FC01E859FF4F859194918FB7F894EC91B9
:10013000E22BEC938FBF0895AF92BF92CF92DF92E4
:10014000EF92FF920F931F93CF93DF936C017B018C
:100150008B01040F151FEB015E01AE18BF08C0171D
:10016000D10759F06991D601ED91FC910190F08190
:10017000E02DC6010995892B79F7C501DF91CF9153
:100180001F910F91FF90EF90DF90CF90BF90AF90B5
:100190000895FC01538D448D252F30E0842F90E08D
:1001A000821B930B541710F0CF9608950197089572
:1001B000FC01918D828D981761F0A28DAE0FBF2F3B
:1001C000B11D5D968C91928D9F5F9F73928F90E091
:1001D00008958FEF9FEF0895FC01918D828D981700
:1001E00031F0828DE80FF11D858D90E008958FEF3D
:1001F0009FEF0895FC01918D228D892F90E0805C06
:100200009F4F821B91098F73992708958BE191E08D
:100210000E94FA0021E0892B09F420E0822F089542
:1002200080E090E0892B29F00E94060181110C9456
:1002300000000895FC01A48DA80FB92FB11DA35A89
:10024000BF4F2C91848D90E001968F739927848FF6
:10025000A689B7892C93A089B1898C918370806419
:100260008C93938D848D981306C00288F389E02DBA
:1002700080818F7D80830895EF92FF920F931F936B
:10028000CF93DF93EC0181E0888F9B8D8C8D981349
:100290001AC0E889F989808185FF15C09FB7F89455
:1002A000EE89FF896083E889F989808183708064A1
:1002B00080839FBF81E090E0DF91CF911F910F91EC
:1002C000FF90EF900895F62E0B8D10E00F5F1F4FFB
:1002D0000F731127E02E8C8D8E110CC00FB607FC0A
:1002E000FACFE889F989808185FFF5CFCE010E9498
:1002F0001A01F1CFEB8DEC0FFD2FF11DE35AFF4FEB
:10030000F0829FB7F8940B8FEA89FB898081806225
:10031000CFCFCF93DF93EC01888D8823B9F0AA89E2
:10032000BB89E889F9898C9185FD03C0808186FDB0
:100330000DC00FB607FCF7CF8C9185FFF2CF8081FF
:1003400085FFEDCFCE010E941A01E9CFDF91CF9159
:1003500008951F920F920FB60F9211242F933F937F
:100360004F935F936F937F938F939F93AF93BF93BD
:10037000EF93FF938BE191E00E941A01FF91EF91BF
:10038000BF91AF919F918F917F916F915F914F91AD
:100390003F912F910F900FBE0F901F9018951F92B5
:1003A0000F920FB60F9211242F938F939F93EF9379
:1003B000FF93E0912B01F0912C018081E0913101BC
:1003C000F091320182FD1BC09081809134018F5FDA
:1003D0008F7320913501821741F0E0913401F0E0F4
:1003E000E55EFE4F958F80933401FF91EF919F91D1
:1003F0008F912F910F900FBE0F901F9018958081B5
:10040000F4CF1F920F920FB60F9211242F933F93A8
:100410008F939F93AF93BF93809117019091180191
:10042000A0911901B0911A013091160123E0230F18
:100430002D3758F50196A11DB11D2093160180930B
:10044000170190931801A0931901B0931A0180919C
:10045000120190911301A0911401B0911501019620
:10046000A11DB11D8093120190931301A09314015B
:10047000B0931501BF91AF919F918F913F912F91B3
:100480000F900FBE0F901F90189526E8230F02962D
:10049000A11DB11DD2CFCF93DF93EBE1F1E0138229
:1004A000128288EE93E0A0E0B0E084839583A68377
:1004B000B78384E091E09183808385EC90E0958719
:1004C000848784EC90E09787868780EC90E0918B1E
:1004D000808B81EC90E0938B828B82EC90E0958B0B
:1004E000848B86EC90E0978B868B118E128E138E08
:1004F000148EC8EBD1E01B861A86198218821E8AD8
:100500001F8A188E198E88EE93E09F838E8388E071
:1005100090E09D878C878AE090E09F878E8789E0B6
:1005200090E0998B888B8BE090E09B8B8A8B88E0A6
:100530000E947D008E850E947D0088890E947D003A
:100540008A890E947D001D8A1C8A84E090E0998738
:100550008887DF91CF910895789484B5826084BDB7
:1005600084B5816084BD85B5826085BD85B58160B7
:1005700085BD80916E00816080936E001092810035
:1005800080918100826080938100809181008160F0
:1005900080938100809180008160809380008091B1
:1005A000B10084608093B1008091B000816080933D
:1005B000B00080917A00846080937A0080917A0004
:1005C000826080937A0080917A00816080937A00C3
:1005D00080917A00806880937A001092C100209107
:1005E000BE013091BF01032E000C440B550B60E09F
:1005F00077E883E993E00E944D03CA01B90121E144
:1006000030E040E050E00E944D032093BA01309367
:10061000BB014093BC015093BD01E0912B01F091CF
:100620002C0182E08083E0912701F0912801108263
:10063000E0912901F0912A018FEC8083109233011F
:10064000E0912F01F091300186E08083E0912D014F
:10065000F0912E01808180618083E0912D01F091E5
:100660002E01808188608083E0912D01F0912E0120
:10067000808180688083E0912D01F0912E0180813E
:100680008F7D8083C0E0D0E02097F1F30E940601C7
:100690008823D1F30E940000F7CF052E97FB1EF4AC
:1006A00000940E94640357FD07D00E946C0307FC6E
:1006B00003D04EF40C9464035095409530952195E9
:1006C0003F4F4F4F5F4F089590958095709561957E
:1006D0007F4F8F4F9F4F0895A1E21A2EAA1BBB1B7D
:1006E000FD010DC0AA1FBB1FEE1FFF1FA217B307FE
:1006F000E407F50720F0A21BB30BE40BF50B661F14
:10070000771F881F991F1A9469F7609570958095D7
:1007100090959B01AC01BD01CF010895EE0FFF1F25
:0C0720000590F491E02D0994F894FFCFAF
:10072C00000000003C019C00C9008901FA00D800BF
:02073C00EC00CF
:00000001FF
