:100000000C9457010C9488010C9488010C9488017D
:100010000C9488010C9488010C9488010C9488013C
:100020000C9488010C9488010C9488010C9488012C
:100030000C9488010C9488010C9488010C9488011C
:100040000C9488010C9488010C9488010C9488010C
:100050000C9488010C9488010C9488010C940C0574
:100060000C9488010C94D6040C94AC040C94880174
:100070000C9488010C9488010C9488010C948801DC
:100080000C9488010C9488010C9488010C948801CC
:100090000C9488010C9488010C9488010C948801BC
:1000A0000C9488010C9488010C9488010C948801AC
:1000B0000C9488010C9488010C9488010C9488019C
:1000C0000C9488010C9488010C9488010C9488018C
:1000D0000C9488010C9488010C9488010C9488017C
:1000E0000C9488010C942C030C942F040C9425047C
:1000F0000C94B3030C94EE020C948A010C94C0038C
:100100000C9436030C94DE030C9414030C9411032A
:100110000C94EE030C94B7010C940D030C9424037F
:100120000C94E6030C94F3020C9409030C941E0344
:100130000C94F8030C94CA030C9440030C94200212
:100140000C9402040C94E8010C9443040C946D028A
:100150000C94BB030C941B040C943A030C942803DA
:100160000C94C6010C9410070C9405030C944403E2
:100170000C94DA010C9439040C94D4030C943203DB
:100180000C941A030C940C040C944D0400002100F0
:10019000240027002A002D00300033000101000058
:1001A000040107010A0100002200250028002B009D
:1001B0002E003100340002010000050108010B018E
:1001C00000000A0B02090C0D0E08070304010000D1
:1001D000000000000000000000000000000000001F
:1001E00000000000000000000000000012111000DC
:1001F00000000000000000000000000000000000FF
:10020000000000000000000020002300260029005C
:100210002C002F003200000100000301060109013B
:1002200005050505070508080808020202020A0A72
:100230000808040404040101010101010101030390
:10024000030303030303040707070C0C0C0C0C0C3B
:100250000C0C0202020206060606060606060B0B38
:100260000B0B0B0B0B0B0102102020080810204079
:10027000102040800201020108040201010204086A
:1002800010204080804020100804020180040201F8
:100290008040201008040201080402010102040841
:1002A0001020408001020408102040801007112413
:1002B0001FBECFEFD1E2DEBFCDBF00E00CBF12E02A
:1002C000A0E0B2E0E0EFF0E100E00BBF02C0079079
:1002D0000D92A231B107D9F722E0A2E1B2E001C04C
:1002E0001D92A83BB207E1F711E0C7E5D1E000E0BD
:1002F00006C021970109802FFE010E946E08C635B5
:10030000D10780E00807A9F70E949B050C947608A6
:100310000C940000AF92BF92CF92DF92EF92FF92C7
:100320000F931F93CF93DF936C017B018B01040F1D
:10033000151FEB015E01AE18BF08C017D10759F0B9
:100340006991D601ED91FC910190F081E02DC601FB
:100350001995892B79F7C501DF91CF911F910F91E5
:10036000FF90EF90DF90CF90BF90AF900895FC0189
:10037000538D448D252F30E0842F90E0821B930B0A
:10038000541710F0CF96089501970895FC01918DB0
:10039000828D981761F0A28DAE0FBF2FB11D5D96B3
:1003A0008C91928D9F5F9F73928F90E008958FEF55
:1003B0009FEF0895FC01918D828D981731F0828D09
:1003C000E80FF11D858D90E008958FEF9FEF089560
:1003D000FC01918D228D892F90E0805C9F4F821BC4
:1003E00091098F73992708958BE192E00E94E801AB
:1003F00021E0892B09F420E0822F0895FC01A48DCF
:10040000A80FB92FB11DA35ABF4F2C91848D90E036
:1004100001968F739927848FA689B7892C93A08919
:10042000B1898C91837080648C93938D848D9813A3
:1004300006C00288F389E02D80818F7D8083089536
:10044000EF92FF920F931F93CF93DF93EC0181E024
:10045000888F9B8D8C8D98131AC0E889F9898081CB
:1004600085FF15C09FB7F894EE89FF896083E889FE
:10047000F98980818370806480839FBF81E090E0F0
:10048000DF91CF911F910F91FF90EF900895F62E7D
:100490000B8D10E00F5F1F4F0F731127E02E8C8D17
:1004A0008E110CC00FB607FCFACFE889F98980815C
:1004B00085FFF5CFCE010E94FE01F1CFEB8DEC0F51
:1004C000FD2FF11DE35AFF4FF0829FB7F8940B8F79
:1004D000EA89FB8980818062CFCFCF93DF93EC01E3
:1004E000888D8823B9F0AA89BB89E889F9898C911C
:1004F00085FD03C0808186FD0DC00FB607FCF7CFD8
:100500008C9185FFF2CF808185FFEDCFCE010E94D7
:10051000FE01E9CFDF91CF91089580E090E0892B33
:1005200029F00E94F40181110E94000080E090E017
:10053000892B49F080E090E0892B29F00E9400008F
:1005400081110E94000080E090E0892B49F080E05A
:1005500090E0892B29F00E94000081110E94000088
:1005600080E090E0892B49F080E090E0892B29F031
:100570000E94000081110C9400000895282F30E0A3
:10058000F901E054FE4F9491F901EA59FD4F44916D
:10059000205E3D4FF9012491222309F435C09923AF
:1005A00011F191509231F8F4E92FF0E08827E452EC
:1005B000FD4F8F4F0C946E080D031103EE020503DF
:1005C0000903F30214031A031E03240328032C0354
:1005D00032033603F3023A03400344038091800060
:1005E0008F7780938000E22FF0E0EE0FFF1FEA5537
:1005F000FE4FA591B4918FB7F894EC91611148C06A
:1006000040954E234C938FBF0895809180008F7D3D
:10061000E8CF80918000877FE4CF84B58F7784BD59
:10062000E2CF84B58F7DFBCF8091B0008F77809330
:10063000B000D9CF8091B0008F7DF9CF809190002C
:100640008F7780939000CFCF809190008F7DF9CFEE
:1006500080919000877FF5CF8091A0008F77809365
:10066000A000C1CF8091A0008F7DF9CF8091A00024
:10067000877FF5CF809120018F7780932001B3CFC2
:10068000809120018F7DF9CF80912001877FF5CF68
:100690004E2BB8CFCF93DF9390E0FC01EA59FD4F8A
:1006A0002491805E9D4FFC0184918823D1F090E0DD
:1006B000880F991FFC01E457FE4FA591B491FC01EE
:1006C000EA55FE4FC591D49161110EC09FB7F894C1
:1006D0008C91E22FE0958E238C932881E223E8838E
:1006E0009FBFDF91CF9108958FB7F894EC91E22BE3
:1006F000EC938FBFF6CF1F93CF93DF93182FEB01AF
:1007000061E00E944A03209739F460E0812FDF9175
:10071000CF911F910C94BE02CF3FD10511F461E03F
:10072000F5CFE12FF0E0E054FE4FE491E150E231EB
:1007300008F0B3C0F0E08827EF55FC4F8F4F0C94C2
:100740006E08B303BB03C003CA03D4034D04DE0326
:10075000E603EE03F80302040C041B0425044D0415
:100760002F043904430484B5806884BDC7BDDF917C
:10077000CF911F91089584B5806284BDC8BDF7CF25
:1007800080918000806880938000D0938900C0931E
:100790008800EDCF80918000806280938000D093AC
:1007A0008B00C0938A00E3CF8091800088608093A3
:1007B0008000D0938D00C0938C00D9CF8091B00081
:1007C00080688093B000C093B300D1CF8091B00017
:1007D00080628093B000C093B400C9CF8091900034
:1007E000806880939000D0939900C0939800BFCF09
:1007F00080919000806280939000D0939B00C09382
:100800009A00B5CF80919000886080939000D0933B
:100810009D00C0939C00ABCF8091A0008068809326
:10082000A0008091A0008F7B8093A000D093A900AE
:10083000C093A8009CCF8091A00080628093A0000C
:10084000D093AB00C093AA0092CF8091A0008860A3
:100850008093A000D093AD00C093AC0088CF80916E
:100860002001806880932001D0932901C093280142
:100870007ECF80912001806280932001D0932B0154
:10088000C0932A0174CF8091200188608093200159
:10089000D0932D01C0932C016ACFC038D1050CF044
:1008A0003ECF33CF3FB7F894809117029091180252
:1008B000A0911902B0911A0226B5A89B05C02F3F3E
:1008C00019F00196A11DB11D3FBFBA2FA92F982F76
:1008D0008827BC01CD01620F711D811D911D42E071
:1008E000660F771F881F991F4A95D1F708958F9239
:1008F0009F92AF92BF92CF92DF92EF92FF920E94AF
:1009000052044B015C0184E6C82ED12CE12CF12C61
:100910000E945204681979098A099B09683E73404C
:1009200081059105A8F321E0C21AD108E108F10878
:1009300088EE880E83E0981EA11CB11CC114D1045E
:10094000E104F10429F7FF90EF90DF90CF90BF9082
:10095000AF909F908F9008951F920F920FB60F92B5
:1009600011240BB60F922F933F934F935F936F9386
:100970007F938F939F93AF93BF93EF93FF938BE1FD
:1009800092E00E94FE01FF91EF91BF91AF919F9184
:100990008F917F916F915F914F913F912F910F9028
:1009A0000BBE0F900FBE0F901F9018951F920F92C5
:1009B0000FB60F9211240BB60F922F938F939F9324
:1009C000EF93FF93E0912B02F0912C028081E09154
:1009D0003102F091320282FD1DC09081809134027B
:1009E0008F5F8F7320913502821741F0E0913402BE
:1009F000F0E0E55EFD4F958F80933402FF91EF911B
:100A00009F918F912F910F900BBE0F900FBE0F9063
:100A10001F9018958081F2CF1F920F920FB60F9200
:100A200011242F933F938F939F93AF93BF93809104
:100A3000130290911402A0911502B0911602309108
:100A4000120223E0230F2D3758F50196A11DB11D89
:100A5000209312028093130290931402A093150224
:100A6000B09316028091170290911802A09119027A
:100A7000B0911A020196A11DB11D809317029093A7
:100A80001802A0931902B0931A02BF91AF919F91DF
:100A90008F913F912F910F900FBE0F901F9018953F
:100AA00026E8230F0296A11DB11DD2CFCF92DF926F
:100AB000EF92FF920F931F93E82FF92F05C001507B
:100AC00011092109310961F1908196239417B9F335
:100AD00005C0015011092109310911F190819623B6
:100AE0009413F7CFC12CD12CE12CF12C0AC08FEF3D
:100AF000C81AD80AE80AF80A0C151D052E053F0584
:100B000079F080818623841791F36C2D7D2D8E2DB5
:100B10009F2D1F910F91FF90EF90DF90CF90089540
:100B200060E070E080E090E01F910F91FF90EF9007
:100B3000DF90CF900895789484B5826084BD84B5A9
:100B4000816084BD85B5826085BD85B5816085BDC8
:100B500080916E00816080936E0010928100809180
:100B60008100826080938100809181008160809308
:100B70008100809180008160809380008091B1002D
:100B800084608093B1008091B00081608093B00058
:100B900080919100826080939100809191008160AA
:100BA000809391008091900081608093900080916B
:100BB000A10082608093A1008091A1008160809358
:100BC000A1008091A00081608093A000809121010C
:100BD00082608093210180912101816080932101B5
:100BE0008091200181608093200180917A0084604F
:100BF00080937A0080917A00826080937A0080915D
:100C00007A00816080937A0080917A008068809376
:100C10007A001092C10061E08CE00E944A0361E01A
:100C20008CE00E94BE0261E08BE00E944A0360E01B
:100C30008AE00E944A03E0912B02F0912C0282E0AC
:100C40008083E0912702F09128021082E09129022E
:100C5000F0912A028FEC808310923302E0912F02F0
:100C6000F091300286E08083E0912D02F0912E0217
:100C7000808180618083E0912D02F0912E0280813D
:100C800088608083E0912D02F0912E02808180683F
:100C90008083E0912D02F0912E0280818F7D8083F0
:100CA000C3E0D0E093E2E92EF12C20E7C22E22E04F
:100CB000D22E3AE2A32E32E0B32E61E08DE00E9404
:100CC000BE0260E08BE00E94BE02CE010197F1F708
:100CD00061E08BE00E94BE02C7010197F1F760E07E
:100CE0008BE00E94BE02F6016491F5018491E82F29
:100CF000F0E0EE0FFF1FEA5FFD4F8591949100E455
:100D000012E42FE030E0462F0E9456056115710570
:100D10008105910529F06F5F7F4F8F4F9F4F9F7027
:100D20000E94750726E933E44BE05DE30E94D90792
:100D300020E030E040E05FE30E94D9070E943D07D9
:100D400065317105CCF10E94770460E089E10E9471
:100D5000BE0261E087E10E94BE0262E870E086E0C8
:100D60000E947B0361E08DE10E94BE0260E08BE1A6
:100D70000E94BE0262E870E089E00E947B0361E0AD
:100D800085E20E94BE0260E083E20E94BE0262E849
:100D900070E083E00E947B0361E081E20E94BE027A
:100DA00060E08FE10E94BE0262E870E085E00E9490
:100DB0007B030E948D0281CF0E94770461E089E16C
:100DC0000E94BE0260E087E10E94BE0262E870E01D
:100DD00086E00E947B0360E08DE10E94BE0261E03C
:100DE0008BE10E94BE026CE870E089E00E947B0308
:100DF00060E085E20E94BE0261E083E20E94BE02E2
:100E00006CE870E083E00E947B0360E081E20E9476
:100E1000BE0261E08FE10E94BE026CE870E0C6CFC6
:100E2000EBE1F2E01382128288EE93E0A0E0B0E002
:100E300084839583A683B78384E092E09183808343
:100E400085EC90E09587848784EC90E0978786878F
:100E500080EC90E0918B808B81EC90E0938B828B87
:100E600082EC90E0958B848B86EC90E0978B868B60
:100E7000118E128E138E148E08950E94440768946A
:100E8000B1110C94D30708950E94B80788F09F57BA
:100E900098F0B92F9927B751B0F0E1F0660F771F9E
:100EA000881F991F1AF0BA95C9F714C0B13091F094
:100EB0000E94D207B1E008950C94D207672F782FD3
:100EC0008827B85F39F0B93FCCF386957795679559
:100ED000B395D9F73EF490958095709561957F4FC5
:100EE0008F4F9F4F0895E89409C097FB3EF490956B
:100EF0008095709561957F4F8F4F9F4F9923A9F0F3
:100F0000F92F96E9BB279395F69587957795679581
:100F1000B795F111F8CFFAF4BB0F11F460FF1BC0C5
:100F20006F5F7F4F8F4F9F4F16C0882311F096E958
:100F300011C0772321F09EE8872F762F05C0662306
:100F400071F096E8862F70E060E02AF09A95660FBF
:100F5000771F881FDAF7880F9695879597F9089578
:100F600057FD9058440F551F59F05F3F71F047955A
:100F7000880F97FB991F61F09F3F79F0879508953F
:100F8000121613061406551FF2CF4695F1DF08C05E
:100F9000161617061806991FF1CF8695710561057B
:100FA00008940895E894BB2766277727CB0197F923
:100FB00008950E94EC070C945D080E944F0838F0D9
:100FC0000E94560820F0952311F00C9446080C94CA
:100FD0004C0811240C94D3070E94B00770F3959F1E
:100FE000C1F3950F50E0551F629FF001729FBB2720
:100FF000F00DB11D639FAA27F00DB11DAA1F649FBC
:101000006627B00DA11D661F829F2227B00DA11D6E
:10101000621F739FB00DA11D621F839FA00D611DF4
:10102000221F749F3327A00D611D231F849F600D15
:10103000211D822F762F6A2F11249F5750409AF03E
:10104000F1F088234AF0EE0FFF1FBB1F661F771FCA
:10105000881F91505040A9F79E3F510580F00C9495
:1010600046080C94D3075F3FE4F3983ED4F386958B
:1010700077956795B795F795E7959F5FC1F7FE2B35
:10108000880F911D9695879597F9089597F99F6711
:1010900080E870E060E008959FEF80EC0895002400
:1010A0000A941616170618060906089500240A94CD
:1010B00012161306140605060895092E0394000C53
:1010C00011F4882352F0BB0F40F4BF2B11F460FFE2
:1010D00004C06F5F7F4F8F4F9F4F0895EE0FFF1F2C
:1010E000881F8BBF0790F691E02D1994F894FFCFDD
:1010F0000000000020028A01B7016D02E801C6016C
:02110000DA0112
:00000001FF
